:020000040800F2
:10000000300900204102000853440008773D0008F1
:100010005144000829170008295400080000000076
:10002000000000000000000000000000E34A00089B
:10003000771700080000000041470008454E0008FF
:100040005B0200085B0200085B0200085B0200081C
:100050005B0200085B0200085B0200085B0200080C
:100060005B0200085B0200085B0200085B020008FC
:100070005B0200085B0200085B0200085B020008EC
:100080005B0200085B0200085B0200085B020008DC
:100090005B0200085B0200085B0200085B020008CC
:1000A0005B0200085B0200085B0200085B020008BC
:1000B0005B020008D54E0008000000005B0200084B
:1000C0005B02000800000000000000005B02000866
:1000D000000000005B0200085B0200085B020008F1
:1000E0005B0200085B020008000000000000000046
:1000F0000000000000000000000000000000000000
:1001000000000000000000000000000000000000EF
:1001100000000000000000005B0200085B02000815
:1001200000000000000000000000000000000000CF
:1001300000000000000000000000000000000000BF
:100140005B0200085B020008000000005B02000880
:10015000FD3A00085B0200085B0200085B02000831
:100160005B0200085B0200080000000000000000C5
:10017000000000000000000000000000000000007F
:10018000000000005B02000800F002F800F049F8EF
:100190000AA090E8000C82448344AAF10107DA45E2
:1001A00001D100F03EF8AFF2090EBAE80F0013F0EB
:1001B000010F18BFFB1A43F001031847DC6200006F
:1001C000FC620000103A24BF78C878C1FAD8520700
:1001D00024BF30C830C144BF04680C6070470000C1
:1001E0000023002400250026103A28BF78C1FBD840
:1001F000520728BF30C148BF0B607047662905F021
:100200002983002070471FB505F01FFB00F0E0FBBD
:1002100004000020002105F08BFAE0601FBD10B53E
:1002200010BD00F0D5FC1146FFF7EDFF05F030FAE8
:1002300000F0F3FC03B4FFF7F2FF03BC00F036FD5F
:100240000948804709480047FEE7FEE7FEE7FEE76A
:10025000FEE7FEE7FEE7FEE7FEE7FEE704480549A6
:10026000054A064B70470000C54E0008890100088A
:100270003004002030090020300500203005002027
:1002800053EA020C00F069802DE9F04B4FF00006B4
:10029000002B1FBFB3FA83F503FA05F424FA05F621
:1002A0005E4012BF1643B2FA82F502FA05F4C5F1B8
:1002B00020051EBF22FA05FC44EA0C04203556EA4C
:1002C000044C4FEA144418BF641C4FF000084FF070
:1002D0000009904271EB030C39D3002919BFB1FA20
:1002E00081F701FA07F6B0FA80F700FA07F6C7F1CE
:1002F00020071EBF20FA07FC46EA0C062037B6FB93
:10030000F4FCA7EB0507103F07F01F0BCBF120060D
:100310000CFA0BFB2CFA06F644BFB3460026202F3E
:10032000A4BF5E464FF0000B5BEA060C08BF4FF01F
:10033000010B19EB0B09ABFB027C48EB0608C01B59
:1003400006FB02CC0BFB03CC71EB0C01C1E70B46A7
:10035000024641464846BDE8F08B13B54FF0000019
:100360004FF00001AFF30080BDE81C407047000073
:100370000FB41CB5074B06AA7B446946009005984C
:1003800000F00DFB0020694600F01CFB1CBC5DF872
:1003900014FB00004906000070B50446856900683A
:1003A000C10601D5302600E02026C00707D070BD69
:1003B000D4E9012130469047206A401C20626D1E1E
:1003C000F6D570BD70B5044685690078C00707D1C1
:1003D00070BDD4E9012120209047206A401C206292
:1003E0006D1EF6D570BD00002DE9F05F894604460C
:1003F0004FF0000ADFF824B1FB44C0F820A02046EB
:10040000E168884700287DD0252806D0D4E901215D
:100410009047206A401C2062F1E700255F46204695
:10042000E16888472028064607DB312E05D2B81937
:1004300010F8200C08B10543F1E7A80701D525F015
:100440000405C4F81CA00027C4F818A02A2E09D05F
:10045000304605F015F938B304EB8708303EC8F88C
:10046000186019E059F8041B204604EB87029161DB
:10047000E1688847012F064618D1E069002820DA94
:1004800025F020051DE0D8F8180000EB800006EBF1
:1004900040003038C8F818002046E1688847064612
:1004A00005F0EEF80028EED1012F0AD02E2E08D14B
:1004B0002046E16888477F1C0646022F45F020054C
:1004C000C4DBA069002803DA404245F00105A061C1
:1004D000E80701D025F01005A6B1A6F141001928C2
:1004E00002D8203645F400654A463146204625604C
:1004F0004D46FFF783FE60B1012807D0ED1D25F0C2
:10050000070000E007E000F1080978E705F10409B9
:1005100075E730467AE7206ABDE8F09FF45F000097
:100520004FF0000200B5134694469646203922BF8C
:10053000A0E80C50A0E80C50B1F12001BFF4F7AFD7
:10054000090728BFA0E80C5048BF0CC05DF804EBB9
:10055000890028BF40F8042B08BF704748BF20F827
:10056000022B11F0804F18BF00F8012B7047704725
:100570007047704770472DE9FF4F0C461E464FF0FD
:10058000FF378BB0D2E90001DDF860800A908A461F
:10059000C1F30A5505B93D46002108464FF0000059
:1005A000BAF1000F00F4400005DA00EB80004FF4D0
:1005B000400101EA50004FEA9059B9F1010F00DD06
:1005C000B9460A9850EA4A000ED044F61050A5F2F7
:1005D000FF3545432F14B8F1000F1ED07542291E78
:1005E0001EDDC9F100021CE0B8F1010F4FF0000060
:1005F00001D0302103E0F24305E02154401CB04219
:10060000FBDB30460022002121540B99C1F8088001
:10061000C1E900200FB0BDE8F08FBD1B6D1CDEE707
:100620004A4600DA694206A800F05CFA06AB93E895
:10063000070003AB83E8070050460A9900F03DFB32
:100640008DE80700A0F500501F3800900398002D9A
:100650000ADD42F21F014A460844002303A9039021
:10066000684600F0A6FD09E0A0F500504A461F3894
:10067000002303A90390684600F0B0FD8DE8070051
:100680000004000C03D04FF0FF30410800E010469A
:10069000B8F1000F03D00022009215461EE0751E2F
:1006A00005D400F099F9303262556D1EF9D5B34684
:1006B0000122084302D000227F1C04E02078302869
:1006C00001D100227F1E002A099784D01DE0112D40
:1006D00007DA00F081F9303262556D1C50EA0102F0
:1006E000F5D1084302D00098C8B10EE00021681E81
:1006F00005E0235C625C63542254401E491C814225
:10070000F7DBAB46A81B401E0990002004F80B0045
:100710000B98099AC0F80880C0E9002B7AE71126E7
:100720004FF0000857E72DE9F04F88460446D21DE8
:1007300022F0070191B0D1E90001CDE90A0104F0EE
:1007400077FF02460B98C00F01D02D2007E02068EC
:10075000810701D52B2002E0202101EAC000032AF5
:10076000099001D0072A05DB03464146204600F0E8
:1007700079F90BE12078800601D5E06900E00620D8
:10078000B8F1650F814606D0B8F1660F18D0B8F100
:10079000670F70D131E00020B9F1110F009001DB3B
:1007A000112301E009F101030AAA01A90CA8FFF72E
:1007B000E2FEDDE90C70002609F10105834647E001
:1007C00001204B4600904FF000470AAA01A90CA84F
:1007D000FFF7D1FEDDE90DB00C995D46002610B99A
:1007E00009F101000D18B9EB050003D4C0F1FF3683
:1007F00009F10105A5EB09002BE0B9F1010F01DAC0
:100800004FF001090020B9F1110F0090484601DDB9
:10081000112300E003460AAA01A90CA8FFF7ABFECA
:10082000DDE90C704D4600268346207800070AD487
:10083000AB4500DA5D4601A8012D04DD411911F830
:10084000011C302907D04F4502DA17F1040F04DAF2
:10085000012082460FE06D1EEEE7002F02DCED1B4B
:100860003E4403E0781CA84200DD7D1CB81B00F16B
:10087000010A4FF000472078000703D4AA4501DBA6
:100880004FF0FF3A0021B7F1004F0DF143088DF80A
:10089000431024D002202B23002F01DA7F422D2386
:1008A0000A21021EA0F1010000DC5FB197FBF1FC00
:1008B00097FBF1F201FB1C7C17460CF1300C08F899
:1008C00001CDEEE7A8F1010003702188090501D5EB
:1008D000452100E06521A0F1010800F8011C0998FC
:1008E0000FA9A1EB0807FF1D00B10120411901EB81
:1008F000EA70A1693844081A401EA0612078C00639
:1009000002D42046FFF748FD099828B1D4E9012117
:100910009047206A401C20622078C00622D52046DD
:10092000FFF73AFD1EE0002E04DBB34502DD01A80F
:10093000805D00E03020D4E901219047206A401C0E
:100940002062761CAAF101005FEA000A0AD100F0D9
:100950003FF8C0680168405CD4E901219047206AF3
:10096000401C2062281EA5F10105DCDC07E0D4E96B
:10097000012118F8010B9047206A401C2062381EA4
:10098000A7F10107F3DC2046FFF71CFD032011B09F
:1009900041E6000001694A1C02610878704700B511
:1009A0008FB0CDE901310021059105497944CDE9A8
:1009B000031011466846FFF717FD0FB000BD000099
:1009C000E5FFFFFF0A6802F8010B0A6070470000AC
:1009D00000487047F003002030B5B0F10A024FEA3A
:1009E000900E71F100034EEA817EB0EB0E0061EBD8
:1009F00091014FEA101E4EEA017E10EB0E0041EB12
:100A000011114FEA102E4EEA016E10EB0E0041EB71
:100A100011214FEA104E4EEA014E10EB0E0041EB51
:100A20001141401841F100014FEAD00040EA417005
:100A30004FEAD10110EB80054FEA810444EA90743B
:100A400044EB01046D1944EB0404521BA3414FF025
:100A5000000348BF0A3200D530BD401C41F10001FF
:100A600030BD00002DE9F0411F4604460326016811
:100A7000072A01F4006004DB08B116A505E016A5FD
:100A800003E008B115A500E015A521F010002060D5
:100A9000A069C01EA0610FB1401EA0612046FFF7F3
:100AA0007BFC4FB1D4E9012138469047206A401CB5
:100AB0002062C01C206206E0206AFAE7D4E9012126
:100AC00015F8010B9047761EF8D22046FFF77AFC06
:100AD000BDE8F0814E414E006E616E00494E460009
:100AE000696E66002DE9F047814616468AB03548A2
:100AF00078440DC88DE80D0032487844801C03AC62
:100B00000DC884E80D0041F69B300844372190FB66
:100B1000F1F290FBF1F5A5F1800501FB12041B3CFD
:100B200002D56442012000E00020DFF898A0804652
:100B30000027FA44AAF1BE0A0EE0E0070AD03246C6
:100B4000684607EB470101230AEB810100F046FBF1
:100B50008DE8070064107F1C002CEED1194F7F44F4
:100B6000AE3F19E0E80715D007EB04100DF1180AA5
:100B700090E80E008AE80E00C068F04201D1981992
:100B800008903246012306A903A800F027FB03AB17
:100B900083E807006D10641C002DE3D14FF00103C2
:100BA00032466946B8F1000F03A802D000F001FBFD
:100BB00001E000F013FBC9E90001C9F808200AB000
:100BC000BDE8F0878C59000000487047D003002032
:100BD0007546FFF7F9FFAE4605006946534620F01B
:100BE0000700854618B020B5FFF738FBBDE8204068
:100BF0004FF000064FF000074FF000084FF0000BD9
:100C000021F00701AC46ACE8C009ACE8C009ACE88B
:100C1000C009ACE8C0098D46704710B50446AFF373
:100C200000802046BDE81040FFF704BB4FF0013CB8
:100C300050F8042B51F8043B9A4221D1A2EB0C034B
:100C4000934313EACC1317D150F8042B51F8043B0B
:100C50009A4215D1A2EB0C03934313EACC130BD1A8
:100C600050F8042B51F8043B9A4209D1A2EB0C0333
:100C7000934313EACC13DBD04FF00000704700BF62
:100C8000D01A01BAB1FA81F101F0180122FA01F08B
:100C9000CB40C1F12001DBB2C0B2C01A2CFA01F383
:100CA000D11A914311EAC311E6D1704701491820C6
:100CB000ABBEFEE72600020070475FEA400C08BFAB
:100CC00091F0000F4FEA8C234FEAC12243EA5151C1
:100CD0004FEA1C5018BF00F5F0404FEA300018BF33
:100CE00041F000415FEA6C5C00F02980BCF1FF3FFD
:100CF00008BF40F080407047130C06BF12044FF04D
:100D0000100C4FF0000C130E04BF12020CF1080C73
:100D1000130F04BF12010CF1040C930F04BF9200D7
:100D20000CF1020CD30F04BF52000CF1010C114660
:100D30004FF00002A0F11F00A0EB0C00704711F073
:100D4000004F08BF704731F000413FF4D5AF0B0CA6
:100D500006BF09044FF0100C4FF0000C0B0E04BF3F
:100D600009020CF1080C0B0F04BF09010CF1040C73
:100D70008B0F04BF89000CF1020CCB0F04BF49009C
:100D80000CF1010CCCF12003A0EB0C0022FA03F3D0
:100D900002FA0CF241EA030100F10100704720F071
:100DA0007F4C80EA030023F07F47ACEB070303F599
:100DB0007C5300F0004003F1FF032DE980494FEA26
:100DC000154B09B44FEA144325EA0B4E24EA0348B5
:100DD0000FF2042606EB132749083E785FEA320239
:100DE00003FB0667C7F5000707FB06F64FEA543713
:100DF0004FEAD64606F1020607FB066CCCF1005C12
:100E00004FEA1C472CEA074C07FB06F40CFB06F5DF
:100E100004EB15464FEA961634BF00204FF0004011
:100E20004FEAD13706FB07FC4FEA1C4C0CFB0BF7D3
:100E3000D21B03FB0CF761EB07010CFB0EF7B0EBC9
:100E4000074072EB17420CFB08F734BFA2EB0742D6
:100E5000B2EB074261EB17414FEA0C444FEA9107AE
:100E600006FB07FC4FEA1C4C0CFB0BF7B0EBC74032
:100E700072EB573203FB0CF734BFA2EBC742B2EB65
:100E8000C74261EB57310CFB0EF7B0EBC70072EBBA
:100E900057720CFB08F734BFA2EBC702B2EBC702D4
:100EA00061EB5771039F4FEA816141EA921104EBB4
:100EB000CC044FEAD1374FEA826206FB07FC42EAD4
:100EC00090124FEA80604FEA1C4C0CFB0BF7D21BD0
:100ED00003FB0CF761EB07010CFB0EF7B0EB0740CF
:100EE00072EB17420CFB08F734BFA2EB0742B2EBE0
:100EF000074261EB17414FEA8C554FEA910704EB2B
:100F00009C2406FB07FC4FEA1C4C0CFB0BF7B0EBD8
:100F1000C74072EB573203FB0CF734BFA2EBC7425A
:100F2000B2EBC74261EB57310CFB0EF7B0EBC700D9
:100F300072EB57720CFB08F734BFA2EBC702B2EB9F
:100F4000C70261EB577115EB4C254FEA816141EA0D
:100F500092114FEA82624FEAD13742EA901206FBC1
:100F600007FC44F100044FEA80604FEA1C4C0CFB84
:100F70000BF7D21B03FB0CF761EB07010CFB0EF721
:100F8000B0EB074072EB17420CFB08F734BFA2EB43
:100F90000742B2EB074261EB174115EB1C154FEA14
:100FA000813141EA92414FEA823242EA90424FEA6D
:100FB00080304FEA0C7644F1000448EA03434EEADD
:100FC0000B484FF0000EB2EB080C71EB030724BF87
:100FD000624639464EEB0E0E4FF0000B00185241A0
:100FE00049414BEB0B0BB2EB080C71EB03077BF1A8
:100FF000000B24BF624639464EEB0E0E4FF0000B3D
:101000000018524149414BEB0B0BB2EB080C71EB52
:1010100003077BF1000B24BF624639464EEB0E0EF0
:1010200051EA020718BF46F0010616EB0E7655F19D
:10103000000254F1000103D5BDE88901BDE8008834
:10104000BDE88901BDE80048B619524141EB0101F4
:10105000A3F10103704780807F7E7D7C7B7A797865
:10106000777676757473727171706F6E6E6D6C6C6D
:101070006B6A6A696868676666656464636362610F
:101080006160605F5F5E5E5D5D5C5C5B5B5A5A5990
:1010900059585857575656555555545453535252FC
:1010A0005251515050504F4F4F4E4E4D4D4D4C4C54
:1010B0004C4B4B4B4A4A4A4949494848484747479D
:1010C00047464646454545444444444343434342DA
:1010D000424242414141002B9C4630D477002BD004
:1010E0001CB54FEA370703B44FF010004FF0100162
:1010F000BAF1000F06D0BCF1000FDCBF40F00800D1
:1011000040F008014FF000000FBCBDE810400BF1AB
:10111000010BBBF1010F08BF5FEA170722BF12F1F5
:10112000010211F101014FF0004143F1000300F011
:10113000004043EA00007047F9D35708D0E746EA79
:10114000064613F1400F4FEA16461FDD13F1200F3C
:10115000DFBF16430A46002120335B42BED0C3F1F5
:10116000200746EA064602FA07F74FEA164646EA1D
:101170000706C3F1200722FA03F201FA07F721FA62
:1011800003F14FF0000342EA0702A7E746EA02062E
:1011900046EA06464FEA164646EA0106BCBF46EA5C
:1011A0000646360C4FF000034FF000024FF00001EE
:1011B00094E72DE9804C9A46934670B491E8380044
:1011C00007C831EA400C48BF34EA430C03D5FFF7A7
:1011D000E6FDFFF780FFF0BCBDE8008C2DE9804CF8
:1011E0009A46934670B491E8380007C810F0804FD3
:1011F00008BF13F0804F03D100F005F8FFF76BFF35
:10120000F0BCBDE8008C20F07F4780EA030023F0AB
:101210007F4C07EB0C03A3F57C5300F00040A3F1D7
:10122000FE0392F0000F00F0B38095F0000F00F085
:1012300077802DE901494FEA11404FEA144621EA2F
:10124000004800FB06FC24EA064708FB06F607FBFD
:1012500008F800FB07F718EB06484CEB164C4FEA72
:10126000124B18EB07484FEA15464CEB174022EAA1
:101270000B4E0BFB06FC25EA06470EFB06F607FBAA
:101280000EFE0BFB07F71EEB064E4CEB164C4FF019
:1012900000061EEB074E4CEB174B18EB0B0840F10A
:1012A000000018EB0E0B58EB000840F100008F1AFD
:1012B0004FF000013CBFC943661B14BFB5EB040CE3
:1012C00000213CBFC943F61B4FEA17444EEA8E0E7D
:1012D00027EA04454FEA1C4704FB07622CEA074C47
:1012E00005FB07F70CFB05F604FB0CFC16EB0746A9
:1012F00042EB174216EB0C4642EB1C421BEB060678
:1013000058EB0202414146EA9E0601D5BDE801893B
:10131000B619524141EB0101A3F10103BDE8018976
:101320004FEA14454FEA114724EA054621EA074CE3
:1013300005FB07F406FB07F70CFB06F105FB0CFCAD
:1013400011EB074144EB17444FEA124711EB0C41F4
:1013500044EB1C4422EA074C05FB07F206FB07F7A7
:101360000CFB06F605FB0CFC16EB074642EB17429E
:1013700016EB0C4642EB1C456A1854F1000148BFBD
:101380007047B619524141EB0101A3F101037047C7
:1013900095F0000F37D04FEA11424FEA144721EA87
:1013A000024624EA074C02FB07F106FB07F70CFB99
:1013B00006F402FB0CFC14EB074441EB17414FEA27
:1013C000154714EB0C4441EB1C4125EA074C02FB8A
:1013D00007F506FB07F70CFB06F602FB0CFC16EB09
:1013E000074645EB174516EB0C4645EB1C42121918
:1013F00051F1000148BF7047B619524141EB01015C
:10140000A3F1010370474FEA14454FEA114724EA5C
:10141000054621EA074C05FB07F106FB07F70CFB25
:1014200006F24FF0000605FB0CFC12EB074241EB05
:10143000174112EB0C4251EB1C4148BF7047921808
:1014400041EB0101A3F10103704700002DE9F043D6
:10145000334840F6E47141F2D7348088344E484333
:101460003B2101EB10302F496FF0260C40F673182A
:101470000A68121A2C4802604369856999466343D9
:101480002A4C05FB0433C469C4EB041403EB840346
:101490001F13446841F283335343664303EB46060C
:1014A000836803FB0CFC06EBCC1CC66806FB08F645
:1014B0000CEB460607EB262606614260C0E90243B4
:1014C0004661C0E9069532B20A8240F21B1048829A
:1014D000B1F90C309A4200DD0B82B1F91030502284
:1014E000502B00DA0A82134BDB7903B90A82B1F977
:1014F000101001EB810141F353020F490A600968A2
:101500000D4A49080C32116000EB8000C0024FF414
:101510002051A1EB2030084980310860BDE8F083FC
:1015200068000020A000002008000020EDFBFFFF65
:101530008DF6FFFFC40300209C74014030B528499C
:10154000088800EB800202EB0030312202EB1035FC
:1015500001F1080005624A88C369D21A42F31304F4
:1015600044618A8840F6E4735A433B2303EB12320A
:10157000C260C9888368C91A41F31303002103605C
:10158000642D00DA0162002C00DA4161642A00DA7D
:10159000C160002B00DA01601149036A40390A6A10
:1015A0001344A3EB92020A629208426243694A6AB8
:1015B0001344A3EB92024A6292088261C3688A6A6A
:1015C0001344A3EB92028A62920802610368CA6A1A
:1015D0001344A3EB9202CA629108416030BD00003F
:1015E000680000200146406A026C12F0500F03D0E0
:1015F000806B026B08461047016C41F40071016476
:101600000168C96811F4406F0CD1417E51B9016C79
:1016100021F480710164016CC90403D4016C41F0B0
:101620000101016400F0C2BA406A016C41F040015E
:101630000164416C41F00401416400F0B9BA406AB0
:1016400000F0B5BA70B504460068816801F0030186
:1016500001292AD10168C90727D0816801F00D014D
:10166000012914D1816841F00201816021680320C1
:10167000086000F07FFE054613E000BF00F07AFE30
:10168000401B02280DD920688068C00709D0206C53
:1016900040F010002064606C40F0010060640120A4
:1016A00070BD20688068C007E8D1002070BD0000D0
:1016B00070B504460068816801F00301012902D178
:1016C0000168C90725D18168134A114212D1816886
:1016D00041F00101816000F04DFE054614E000BFBD
:1016E00000F048FE401B02280ED920680068C04365
:1016F000C00709D0206C40F010002064606C40F0FE
:1017000001006064012070BD20680068C043C0070C
:10171000E6D1002070BD00003F000080014901209B
:1017200088717047C4030020FEE70000054A016885
:1017300011441422B1FBF2F1890001640249C16332
:1017400070470000F8FFFDBF0000024030B590F880
:1017500040500124AC40C56B6C6004686360436812
:10176000102B036803D099600068C26030BD9A6096
:101770000068C16030BD704772B6FEE770B50268A0
:1017800000234FF0A04494B0A24200D1314C009409
:1017900090F83C40012C1FD0012480F83C40926816
:1017A00052074CD4009A9268520748D42A4A0D68CE
:1017B00040F61F7445B3956890F8306025F4604595
:1017C00045EA46354E68354395600568AE6806F0D3
:1017D0000306012E06D102E0022014B070BD2D6870
:1017E000ED0731D1009DAD6805F00305012D03D152
:1017F000009D2D68ED0727D10D6889680D4391681C
:10180000A1430D4395601FE0916821F46041916010
:1018100001688D6805F00305012D02D10968C9072B
:1018200012D10099896801F00301012903D10099BF
:101830000968C90708D19168A143916004E0016C6F
:1018400041F0200101640123002180F83C1018467A
:10185000C3E700000001005000030050F0B594B051
:101860000025009590F83C202E46012A19D001272A
:1018700080F83C7003689A6852077CD44A681F2439
:10188000052A11D2D3F830C002EB42025200944034
:101890002CEA040C0C6894404CEA040CC3F830C0E9
:1018A00035E0022014B0F0BD0A2A0FD2D3F834C0BC
:1018B000521F02EB4202520094402CEA040C0C68C6
:1018C00094404CEA040CC3F834C020E00F2A0FD235
:1018D000D3F838C00A3A02EB4202520094402CEA94
:1018E000040C0C6894404CEA040CC3F838C00EE0B9
:1018F000D3F83CC00F3A02EB4202520094402CEA6B
:10190000040C0C6894404CEA040CC3F83CC0026818
:10191000936813F00C0F4FF0070374D1D1F800E077
:10192000BEF10A0F10D39469AEF10A0E0EEB4E0C05
:1019300003FA0CFE24EA0E04D1F808E00EFA0CFEBD
:1019400044EA0E0494610FE0D2F814C00EEB4E048A
:1019500003FA04FE2CEA0E0CD1F808E00EFA04FE9D
:101960004CEA0E0CC2F814C002684C69D2F80CC0E4
:10197000CCF3C10C00E0E1E04FEA4C0C04FA0CF4AB
:10198000D1F810E0DFF810C2BEF1010F42D0BEF175
:10199000020F4DD0BEF1030F58D0BEF1040F63D03B
:1019A000146E91F800C004F0F844B4EB8C6F03D1CE
:1019B000146E24F0004414660268546E91F800C05E
:1019C00004F0F844B4EB8C6F03D1546E24F000445F
:1019D00054660268946E91F800C004F0F844B4EBC9
:1019E0008C6F03D1946E24F0004494660268D46E28
:1019F00091F800C004F0F844B4EB8C6F03D1D46EBE
:101A000024F00044D4660268946804F00304012CB6
:101A10003AD136E0D2F860E00EEA0C0E91F800C040
:101A200044EA8C644EEA040E4EF000441466EAE781
:101A3000D2F864E00EEA0C0E91F800C044EA8C641F
:101A40004EEA040E4EF000445466DCE7D2F868E03B
:101A50000EEA0C0E91F800C044EA8C644EEA040EC3
:101A60004EF000449466CEE7D2F86CE00EEA0C0E1D
:101A700091F800C044EA8C644EEA040E4EF0004433
:101A8000C0E71468E4075ED1CC68012C06D052F898
:101A9000B03F0C78A740BB43136020E052F8B04F32
:101AA00091F800C007FA0CF73C4314600A68046818
:101AB0000A2A0AD3A769093A02EB420293409F43DC
:101AC0008B6893401F43A76109E06769521C02EBD2
:101AD000420293409F438B6893401F4367610968AC
:101AE0002E4A102904D0112905D0122906D02AE047
:101AF00093681B0204E09368DB0101E093685B02DA
:101B0000002B20DB03684FF0A044A34202D1244FF6
:101B1000009700E000949F6807F00307012F02D1AF
:101B20001F68FF070AD1009F8FB1BF6807F0030746
:101B3000012F0CD1009F3F68FF0708D0016C41F0D6
:101B400020010164012580F83C602846AAE610299E
:101B500008D011291AD01229F5D1916841F48001D9
:101B60009160F0E7A342EED1916841F400019160E9
:101B70000C490D4A0968B1FBF2F101EB8101490002
:101B800000E0491E00910029FBD1DCE7A342DAD135
:101B9000916841F08071E3E700F0FF83000300509B
:101BA00000010050C800002040420F0070477047FD
:101BB00070470068006C7047F0B54FF0000595B0B5
:101BC00004002F462E46009505D0206CC00648D450
:101BD000206C18B133E0012015B0F0BD6664E664F6
:101BE000A66484F83C60204600F0D8F8206880683D
:101BF000C00024D42046FFF725FD0546206CC00612
:101C00001DD4E5B9206C20F4885040F00200206417
:101C10002068816821F0405181602068816841F02E
:101C200080518160574858490068B0FBF1F000EBE3
:101C30008000400000E0401E00900028FBD120689A
:101C40008168C90002D5806880000AD5206C20F028
:101C5000020040F010002064606C40F001006064FD
:101C60000125206CC0067DD4002D7BD120688168C1
:101C700049077ED4216C21F4807141F00201216476
:101C800042494FF0A042904200D1414A00928268FE
:101C900002F00302012A02D10068C00710D10098A7
:101CA00040B1806800F00300012803D1009800686B
:101CB000C00705D18868626820F44030104388600E
:101CC000D4E902100843616B012902D04FF480521D
:101CD00000E00022617E42EA4132104394F8202065
:101CE0003843012A0AD1A9B1216C21F0020141F047
:101CF00020012164616C41F001016164A16A012944
:101D000002D0E26A1143084321688A6812F00C0F7E
:101D100008D013E0A18C1F4A02EB4141014341F47A
:101D20008030EBE7CA6844F202039A43CA60217E1E
:101D300094F83020890341EA420108432168CA68C7
:101D4000154B1A400243CA60206901282068016BC4
:101D500021F00F0102D1E269521E11430163666452
:101D6000206C00E005E020F0020040F0010020645B
:101D700006E0206C20F0020040F0100020640125F5
:101D8000284629E7C800002040420F000003005009
:101D9000000100500000FEFF07C0F0FFF0B587B063
:101DA000064614216846FEF7BBFB2F4A376800251C
:101DB000106803242D49401C4FF09043B7F1A04F09
:101DC00006D02B4EB74234D11060012833D03AE010
:101DD0001060012807D1486940F080504861486987
:101DE00000F080500590486940F40030486148692F
:101DF000694600F4003005900F208DE83100184648
:101E000000F09EF91C4C1B48C4E900058020C4E981
:101E1000025040002061800060612020A06100022B
:101E2000E061204600F01AF908B1FFF7A5FCB463A1
:101E3000666207B0F0BD486940F08050486148696B
:101E400000F080500590486940F4003048614869CE
:101E5000694600F40030059010208DE831001846E6
:101E600000F06EF9E5E700000000002000100240DD
:101E700000010050080002406C01002070B50446CB
:101E800000688068400760D494F83C0001280CD0BA
:101E9000012084F83C002046FFF70AFC01004FF0C7
:101EA000000204D084F83C2050E0022070BD206C79
:101EB00040F60163984340F4807020644FF0A040E6
:101EC000D0F80833DB0602D02368834206D1236CA6
:101ED00023F4801323642368DB6807E0256C45F452
:101EE000801525641A4DAB4208D1C3689B0105D506
:101EF000236C23F4005343F480532364236CDB04EA
:101F000004D5636C23F00603636400E0626484F824
:101F10003C2023681C221A60D0F80823D2060ED079
:101F2000D0F8082302F01F02052A08D0D0F80823B1
:101F300002F01F02092A02D02268824206D12068DC
:101F4000826842F00402826000E00221084670BD0F
:101F5000000100502DE9F04704460068904689468C
:101F6000806840076ED494F83C0001280CD0012012
:101F70004FF0A04684F83C00D6F808034FF0000765
:101F8000C00604D0012507E00220BDE8F087204606
:101F9000FFF78EFB050002D084F83C7053E0206C04
:101FA00040F60161884340F480702064D6F808034D
:101FB000C00602D02068B04206D1206C20F4801008
:101FC00020642068C06807E0216C41F4801121641E
:101FD0001E49884208D1F068800105D5206C20F4A4
:101FE000005040F480502064206CC00404D5606C24
:101FF00020F00600606400E0676484F83C70A16B28
:1020000013488862A16B1348C862A16B1248086329
:1020100021681C2008602068416841F0100141607F
:102020002068C16841F00101C160216843464A4609
:102030004031A06B00F039F82068816841F004015C
:10204000816000E0022528469FE700000001005063
:10205000E51500083F1600082916000870B50400B1
:1020600021D0022084F821002268116843F6F07024
:102070008143D4E901031843D4E903352B431843C2
:1020800063691843A3691843E36918430843106060
:102090002046FFF74BFB0020A063012184F82110AC
:1020A00084F8200070BD012070BD70B5044690F822
:1020B0002000002501280CD0012084F8200094F88D
:1020C00021600020012E06D084F820000225284639
:1020D00070BD022070BD022684F82160A0632068D4
:1020E000066826F0010606602046FFF72FFBE06A2F
:1020F00000282068016802D041F00E0106E041F09E
:102100000A0101602068016821F004010160206873
:10211000016841F001010160D9E7000070B5044693
:1021200000F028F90546601C02D0044800780444F9
:1021300000F020F9401BA042FAD370BDBC00002083
:102140002DE9F04FDFF80092002301260325A9F1C5
:10215000040B85B00F2709F1040AABF1040EEAE085
:1021600006FA03F422407CD091F804C00CF0030C72
:10217000BCF1010F02D0BCF1020F26D1D0F808C08B
:10218000CDF800C04FEA430C05FA0CF8CDF810C0AA
:10219000DDF800C02CEA080CCDF800C0D1F80C80A6
:1021A000DDF810C008FA0CF8DDF800C048EA0C08A9
:1021B000C0F80880D0F804C02CEA040C0C79C4F3F1
:1021C00000149C4044EA0C0444600C79E443A407E6
:1021D0000DD0D0F80CC04FEA430805FA08F42CEAF9
:1021E000040C8C6804FA08F444EA0C04C4600C790A
:1021F00004F00304022C19D1DC0800EB84040294DF
:10220000246A4FEA437C4FEADC6CCDF810C007FA31
:102210000CFC24EA0C04D1F81080DDF810C008FA98
:102220000CF848EA0408029CC4F8208004684FEACD
:10223000430805FA08FC24EA0C0491F804C00CF0E9
:10224000030C0CFA08FC4CEA040CC0F800C04C6803
:1022500014F4403F6ED03D4CD4F818C04CF0010C43
:1022600000E067E0C4F818C0A46923F0030C04F090
:1022700001040094364C64440294A4684FEA837CC1
:102280004FEA1C7807FA08FC24EA0C04B0F1904FDE
:1022900006D0DFF8C0C0604505D14FF0010C12E058
:1022A0004FF0000C0FE0DFF8B0C0604502D14FF0F6
:1022B000020C08E0DFF8A4C0604502D14FF0030C27
:1022C00001E04FF0050C0CFA08FC4CEA040C029CEF
:1022D000C4F808C0D9F80040CC46D1F80480944333
:1022E0005FEAC82800D51443CCF80040DAF8004073
:1022F000D446D1F8048094435FEA882800D514437B
:10230000CCF80040DBF80040DC46D1F80480944370
:102310005FEA883800D51443CCF80040DEF800406E
:10232000F446D1F8048094435FEAC83800D51443DA
:10233000CCF800405B1C0A6832FA03F47FF410AF5B
:1023400005B0BDE8F08F0000080401400010024015
:10235000000001400004004800080048000C00484C
:102360000069084000D0012070470AB181617047C0
:10237000816270470148806870470000BC000020FF
:10238000F0B590F8C130022B27D090F8C030012B67
:1023900023D0012580F8C050022380F8C1300468A2
:1023A000D4F880330026012919D0022921D004292C
:1023B0002BD0082935D0072180F8C11080F8C060E3
:1023C00090F8C110072938D00168C1F8803380F82F
:1023D000C15080F8C0600020F0BD0220F0BD23F4A1
:1023E000E021136803F4E0230B435168C4F8BC13E5
:1023F000E6E723F4601113684FF4601707EAC3039C
:102400000B435168C4F8C013DAE723F0E071136896
:102410004FF0E07707EA83130B435168C4F8C41305
:10242000CEE723F0606113684FF0606707EA43234B
:102430000B435168C4F8C813C2E70120F0BD10B5C2
:1024400090F8C020012A21D0012280F8C020022368
:1024500080F8C1304B1C1BD00368D3F8CC4344F048
:102460000204C3F8CC430368D3F8CC4324F00C0433
:102470000C43C3F8CC430168D1F8CC3343F00103DB
:10248000C1F8CC3380F8C120002010BD022010BD5F
:102490000168D1F8CC3323F00203C1F8CC33EAE76A
:1024A00070B590F8C130022B3CD090F8C030012BB1
:1024B00038D0012500F8C05F022343701388948848
:1024C00003F4E053C4F308041C4313896FF07E4601
:1024D00003F400732343148A04F480441C43938957
:1024E00003F400432343948A06EA04441C4393699B
:1024F00003F000732343146AD26904F080441C4340
:1025000002F00042224350F8C03CB82404EBC1144E
:102510001959054E31401143195145700021017080
:10252000084670BD022070BD0020003C38B5040094
:1025300054D0022084F8C1000025C4F8C450C4F867
:10254000C850C4F8CC50C4F8D050C4F8D450C4F823
:10255000D850207AC0071BD021492068884208D172
:102560002048816941F000518161806900F000508C
:1025700000902168086820F44042208A00F440401E
:10258000104320F44052A08A00F4405010430860E9
:10259000204600F029F8207A800708D521680868CD
:1025A00020F44072A08900F44070104308600120BC
:1025B00084F8C10084F8C0505FF00001C1EBC10095
:1025C00004EB8000491C8561C56105624562856236
:1025D000C9B205630529F1D9002038BD012038BDF5
:1025E000007401400010024008B500680B498842A1
:1025F00012D10B48816941F000518161806900224C
:1026000000F0005000900121442000F055FABDE890
:102610000840442000F042BA08BD000000740140A8
:1026200000100240F0B587B0044614216846FDF75B
:1026300077FF15492068884224D11448416941F444
:10264000003141614069022400F4003005904FF4EC
:102650004070CDE9000402AA012003250D2682E87E
:1026600061004FF0904769463846FFF769FDA802C0
:10267000CDE9000402AA002082E8610069463846DC
:10268000FFF75EFD07B0F0BD00740140001002408E
:1026900070B50D460446FFF76DFE064607E0681C60
:1026A00005D0FFF767FE801BA8420DD865B12068F2
:1026B000D0F88803C043C003F1D4012084F8C100DE
:1026C000002084F8C00070BD072084F8C1000320FA
:1026D00070BD70B590F8C130022B23D0022380F872
:1026E000C130052920D08023046803EBC11563594C
:1026F00023F007069368334323F01806D368334367
:1027000063519425046805EBC1151368635198243F
:10271000036804EBC11152685A50012180F8C110BE
:10272000002070BD022070BD0368196821F0070405
:102730009168214321F01804D1682143196003688E
:1027400011685961516802689161E6E72DE9F04F1F
:1027500090F8C140022C25D090F8C040012C21D027
:102760004FF0010980F8C090022480F8C140002792
:102770004FF0070C052918D09C2404EBC116012A40
:1027800039D08024A8254FF4005A4FF4405B05EB64
:10279000C11504EBC114022A2FD0042A45D0082AFF
:1027A0000BD144E00220BDE8F08F012A0AD0022AB2
:1027B0000CD0042A0ED0082A10D080F8C1C080F8AE
:1027C000C0700EE002681968D1610AE002681968F9
:1027D000516206E002681968916202E002681968B5
:1027E000D16290F8C110072948D080F8C19080F8D4
:1027F000C0700020D7E7196835E04FF0A408D0F882
:1028000000C008EBC1111A684CF801205968002972
:1028100001680A5922F440522ED00A5101680A591F
:10282000D3F804C042EA0C0218E0196821E04FF026
:10283000AC08D0F800C008EBC1111A684CF80120B0
:102840005968002901680A5922F4404214D00A51FB
:1028500001680A59D3F804C042EA8C020A51596847
:10286000514503D1996802689151BAE75945B8D1E9
:10287000996802685151B4E70A51B2E7012092E722
:1028800010B590F8C020012A0ED0012200F8C02F08
:102890000223437050F8C03C1C680C431C6042701B
:1028A00000210170084610BD022010BD70B504461D
:1028B00090F8C100022811D094F8C00001280ED071
:1028C000012584F8C050022084F8C100204601F0A0
:1028D0004AF984F8C150002084F8C00070BD02207D
:1028E00070BD10B590F8C020012A10D0012200F868
:1028F000C02F0223437050F8C03CD3F894430C43DC
:10290000C3F89443427000210170084610BD0220B4
:1029100010BD10B590F8C020012A10D0012200F897
:10292000C02F0223437050F8C03CD3F898430C43A7
:10293000C3F89843427000210170084610BD022080
:1029400010BD2DE9F041054690F8C10014460E4631
:10295000022825D095F8C000012823D0012785F84A
:10296000C070022085F8C100052E1DD0284601F058
:1029700061F9C6EBC60005EB800021680162616861
:102980004162A1688162E168C162216901633146E7
:10299000284601F0BBF885F8C170002085F8C0001A
:1029A000BDE8F0810220FBE728680168D0F8A02389
:1029B00021F020036169194321F40063A1691943DF
:1029C00021F48063E169194321F0C063216A19434E
:1029D00021F00063616A1943A36A21F0404141EA92
:1029E000830121F00053216B194322F48033E26A02
:1029F00001601A432868C0F8A023BAE7024881683A
:102A00000278114481607047BC000020074810B56F
:102A1000016841F010010160032000F06DF8002012
:102A200000F006F800F024F8002010BD002002405D
:102A300070B50D4D04464FF47A712878B1FBF0F073
:102A40000A490968B1FBF0F000F0BCFD48B9102C50
:102A500007D200222146501E00F02EF800206C60A4
:102A600070BD012070BD0000BC000020C800002027
:102A7000094808B5816941F001018161816901F06E
:102A800001010091C16941F08051C161C06900F04C
:102A90008050009008BD000000100240002809DBB3
:102AA00000F01F02012191404009800000F1E02068
:102AB000C0F8001170470000F0B40E4B1B680C46C4
:102AC000C3F30223C3F10705042D00D90425191D02
:102AD000072901D2002300E0DB1E012606FA05F1DA
:102AE000491E214099409E40761E16403143F0BC5D
:102AF00002F0B6BD0CED00E0064900F007020868E0
:102B00004FF6FF03184040EA0220034A10430860D2
:102B1000704700000CED00E00000FA052DE9F84FC9
:102B20000446006800265C4DC0036ED5E869C0000D
:102B300008D4E86940F08050E861E869012600F0B7
:102B40008050009055480168C90512D4016880463C
:102B500041F480710160FFF70DFC074605E000BFFE
:102B6000FFF708FCC01B642835D8D8F80000C00562
:102B7000F6D5286A10F4407053D0A18801F4407152
:102B800081424ED0286A4FF4803191FAA1F2B2FA14
:102B900082F29700424A4FF00108174420F4407037
:102BA000C7F8008491FAA1F1B1FA81F102EB810139
:102BB0000023C1F800342862C00732D0FFF7DAFBE7
:102BC000074641F2883A4FF0020907E0FFF7D2FBCF
:102BD000C11B514502D90320BDE8F88F99FAA9F12C
:102BE000B1FA81F141F040014846B8EB511F01D1E3
:102BF00029680CE090FAA0F1B1FA81F141F04001AE
:102C0000B0EB511F02D1296A01E015E0696A99FA17
:102C1000A9F0B0FA80F000F01F0008FA00F21142AB
:102C2000D4D0286A616820F44070084328621EB13D
:102C3000E86920F08050E8612078C00705D0286B53
:102C4000A16820F00300084328632078800605D59A
:102C5000286BE16820F01000084328632078000604
:102C600005D5E86A216920F4F8700843E8622088F5
:102C7000C00405D5286B616920F48070084328637F
:102C80002088400405D5286BA16920F480500843B2
:102C900028630020A0E70000001002400070004000
:102CA000000042422DE9F0470F46050069D04A4E28
:102CB000306800F00700B84209D2306820F0070001
:102CC00038433060306800F00700B84259D12878A6
:102CD000424C800705D56068A96820F0F0000843E1
:102CE00060602878C0073DD06968012001290DD0B7
:102CF000022923D05FF0020393FAA3F2B2FA82F220
:102D000042F02002520904D0226803E04FF400335D
:102D1000F2E7626A93FAA3F3B3FA83F303F01F03B3
:102D2000984002422DD0606820F0030008436060A4
:102D3000FFF720FB804641F288390CE04FF000732A
:102D4000DAE700BFFFF716FBA0EB0801494502D9FF
:102D50000320BDE8F0876068696800F00C00B0EB04
:102D6000810FEFD1306800F00700B8420BD930680E
:102D700020F0070038433060306800F00700B842A8
:102D800001D00120E5E72878400705D56068E968AB
:102D900020F4E060084360602878000706D560688A
:102DA000296920F4605040EAC100606000F04EF8EC
:102DB0006168F02292FAA2F201F0F001B2FA82F216
:102DC000D140074A515CC84006490860064800687F
:102DD000FFF72EFE0020BCE700200240001002405A
:102DE000D8630008C8000020C00000200848094936
:102DF000006849684FF4E06292FAA2F201F4E061DF
:102E0000B2FA82F2D140044A515CC84070470000D7
:102E1000C800002000100240E86300080848094983
:102E2000006849684FF4605292FAA2F201F46051CE
:102E3000B2FA82F2D140044A515CC84070470000A7
:102E4000C800002000100240E8630008164A10B5D0
:102E50005168164801F00C03042B20D0082B1ED11A
:102E60004FF4701494FAA4F401F47013B4FA84F4D7
:102E7000E3400F4CD26AE45C0F2393FAA3F302F011
:102E80000F02B3FA83F3DA40094B1033C9039A5C9B
:102E900006D500231946FDF7F3F9A0FB040110BD88
:102EA0000448A4FB000110BD0010024000127A008B
:102EB000B863000800093D002DE9F84F050071D006
:102EC0002878FC4EC0074FF0010425D070686704D5
:102ED000C0F38100012807D07068C0F38100022888
:102EE0001BD17068C00318D597FAA7F0B0FA80F02C
:102EF00040F02000400901D0306800E0706A97FA85
:102F0000A7F1B1FA81F101F01F0104FA01F10842C1
:102F100065D068680028D2D061E06868B0F5803F6D
:102F20000BD010B1B0F5A02F17D0306820F480304E
:102F30003060306820F4802002E0306840F4803057
:102F40003060F06AA96820F00F000843F0626868FA
:102F500020B3FFF70FFA80460AE0306840F4802083
:102F60003060EAE7FFF706FAA0EB0800642871D8A2
:102F700097FAA7F0B0FA80F040F02000400901D0A5
:102F8000306800E0706A97FAA7F1B1FA81F101F0B8
:102F90001F0104FA01F10842E4D020E0FFF7EAF94A
:102FA000804607E0C2E000BFFFF7E4F9A0EB0800AD
:102FB0006428DCD897FAA7F0B0FA80F040F020003F
:102FC000400901D0306800E0706A97FAA7F1B1FAC1
:102FD00081F101F01F0104FA01F10842E4D12878DF
:102FE000DFF8D48280074FF0000A4FF0020730D597
:102FF00070684FF0F80B10F00C0F07D07068C0F33A
:103000008100022827D17068C00324D497FAA7F062
:10301000B0FA80F040F02000400901D0306800E0B4
:10302000706A97FAA7F1B1FA81F101F01F0104FA71
:1030300001F1084202D02869012877D130689BFA53
:10304000ABF220F0F8016869B2FA82F290400143D5
:1030500031605AE064E1286988B394FAA4F0B0FAC8
:1030600080F048F82040FFF785F9814606E000BF70
:10307000FFF780F9A0EB090002289AD897FAA7F089
:10308000B0FA80F040F02000400901D0306800E044
:10309000706A97FAA7F1B1FA81F101F01F0104FA01
:1030A00001F10842E4D030689BFAABF26969B2FAE8
:1030B00082F220F0F80091400843306025E0FFE7FD
:1030C00094FAA4F0B0FA80F048F820A0FFF752F983
:1030D000814605E0FFF74EF9A0EB09000228CCD8A5
:1030E00097FAA7F0B0FA80F040F02000400901D034
:1030F000306800E0706A97FAA7F1B1FA81F101F047
:103100001F0104FA01F10842E4D1287800076CD5C8
:10311000A869A8B394FAA4F0B0FA80F008EB800094
:10312000C0F88044FFF726F9814607E0A4E100BF1C
:10313000FFF720F9A0EB090002289ED897FAA7F024
:10314000B0FA80F040F06000B4EB501F01D130685D
:103150000BE097FAA7F0B0FA80F040F06000B7EB10
:10316000501F01D1306A00E0706A97FAA7F1B1FAF6
:1031700081F101F01F0104FA01F21042D8D034E0CD
:10318000FFE794FAA4F1B1FA81F108EB8101C1F8EB
:1031900080A4FFF7EFF8814606E000BFFFF7EAF8EA
:1031A000A0EB090002289AD897FAA7F0B0FA80F0AD
:1031B00040F06000B4EB501F01D130680BE097FA8B
:1031C000A7F0B0FA80F040F06000B7EB501F01D1DB
:1031D000306A00E0706A97FAA7F1B1FA81F101F064
:1031E0001F0104FA01F21042D8D12878400768D5AF
:1031F000F0694FF00009C00009D4F06940F0805038
:10320000F061F0694FF0010900F0805000902B4808
:103210000168C90512D4016841F480710160FFF7AB
:10322000A9F8834606E000BFFFF7A4F8A0EB0B0067
:10323000642875D821480068C005F5D5E8680128DC
:103240000AD008B1052811D0306A20F001003062A0
:10325000306A20F0040002E0306A40F00100306281
:10326000E86868B3FFF786F883460DE0306A40F0FF
:1032700004003062F0E700BFFFF77CF8A0EB0B0121
:1032800041F2883081424BD897FAA7F0B0FA80F02B
:1032900040F04000B4EB501F01D1306813E097FAC2
:1032A000A7F0B0FA80F040F04000B7EB501F09D112
:1032B000306A08E000100240000042420070004006
:1032C0000CE040E0706A97FAA7F1B1FA81F101F0E1
:1032D0001F0104FA01F21042CED02DE0FFF74AF8A8
:1032E000834607E0FFF746F8A0EB0B0141F2883078
:1032F000814215D897FAA7F0B0FA80F040F040006C
:10330000B4EB501F01D130680CE097FAA7F0B0FA87
:1033100080F040F04000B7EB501F02D1306A01E06E
:1033200083E0706A97FAA7F1B1FA81F101F01F0109
:1033300004FA01F21042D5D1B9F1000F03D0F069BF
:1033400020F08050F061E86980B37168C1F38101B9
:10335000022977D04FF080714F000228504609D0E3
:1033600091FAA1F1B1FA81F148F82100FFF702F8D2
:1033700005465DE0894691FAA1F1B1FA81F1C246B4
:1033800048F82100FEF7F6FF804605E0FEF7F2FF61
:10339000A0EB0800022848D897FAA7F0B0FA80F00E
:1033A00040F02000400902D0306801E066E0706A19
:1033B00097FAA7F1B1FA81F101F01F0104FA01F1C6
:1033C0000842E3D1D5E908100843716821F474116B
:1033D0000843706099FAA9F0B0FA80F04AF82040EA
:1033E000FEF7C8FF054604E0FEF7C4FF401B0228B5
:1033F0001BD897FAA7F0B0FA80F040F020004009FF
:1034000001D0306800E0706A97FAA7F1B1FA81F153
:1034100001F01F0104FA01F10842E5D02EE000BFDF
:10342000FEF7A8FF401B022802D90320BDE8F88F51
:1034300097FAA7F0B0FA80F040F02000400902D0DF
:10344000306801E00BE0706A97FAA7F1B1FA81F1F8
:1034500001F01F0104FA01F10842E1D10EE0012858
:10346000E4D070682A6A00F48031914204D1696A1C
:1034700000F47010884201D00120D7E70020D5E782
:1034800070B5040009D0606A002540B1256165610E
:10349000A56294F85D0040B10CE0012070BD606849
:1034A000B0F5827FF4D0E561F2E784F85C50204605
:1034B00000F056F8022084F85D002068016821F0D1
:1034C00040010160E1684FF4E062914201D90020BF
:1034D00001E04FF48050B1F5706F02D0914200D0FE
:1034E000A562A188228901F4827102F40442114389
:1034F000227C02F002021143227D02F001021143FC
:10350000228B02F400721143227F02F03802114331
:1035100094F8202002F080021143228D02F4005220
:10352000114322681160A169042202EA114194F852
:10353000242000F4805002F01002114394F834204B
:1035400002F008021143A28902F4706211430143A0
:10355000206841602566012084F85D00002070BD70
:1035600010B586B0044614216846FCF7D9FF13490C
:10357000206888421FD11248816941F480518161DD
:10358000816901F480510591416941F40031416143
:103590004069694600F400300590A02000900220A8
:1035A00001900020029003200390052004904FF02A
:1035B0009040FEF7C5FD06B010BD00000030014090
:1035C0000010024010B5401EB0F1807F01D30120F1
:1035D00010BD4FF0E02460610F21601702F040F849
:1035E0000020A06107202061002010BD70477047B7
:1035F00070470000F0B590F83C20012A2CD001243F
:1036000080F83C40022280F83D2003685A689D689B
:10361000124EB34203D122F470074A683A4322F0B3
:1036200070070A683A435A600268B24208D0B2F1A1
:10363000804F05D00A4B9A4202D00A4B9A4204D1DD
:10364000896825F080031943916080F83D4000218E
:1036500080F83C100846F0BD0220F0BD002C01406F
:10366000000400400040014010B5040003D094F86D
:103670003D0010B107E0012010BD002084F83C009F
:10368000204600F023F8022084F83D00211D206828
:1036900001F044FC012084F8480084F83E0084F8DE
:1036A0003F0084F8400084F8410084F8420084F828
:1036B000430084F8440084F8450084F8460084F808
:1036C000470084F83D00002010BD000008B50068E8
:1036D0000B49884212D10B48C16941F00201C16116
:1036E000C069002200F00200009002211D20FFF7B7
:1036F000E3F9BDE808401D20FFF7D0B908BD000080
:10370000000400400010024090F83D10012901D053
:1037100001207047022180F83D100168CA6842F01C
:103720000102CA6000680D49884208D0B0F1804F9C
:1037300005D00B49884202D00A49884207D18168E6
:10374000094A1140062906D0B1F5803F03D001682F
:1037500041F001010160002070470000002C014091
:1037600000040040004001400700010070B504461D
:1037700090F83C000025012817D0012684F83C6011
:10378000022084F83D00226890682F4B184020F4F6
:103790007F4090600868502838D00DDC20284FD03A
:1037A00005DC90B3102811D14AE0022070BD30280A
:1037B00046D040280AD13BE060282FD070280DD099
:1037C000B0F5805F03D0B0F5005F12D0012584F81A
:1037D0003D60002084F83C00284670BDCB68D1E9EC
:1037E0000121206801F0DEFB2068816841F077014B
:1037F00009E0CB68D1E90121206801F0D3FB206802
:10380000816841F480418160E1E719E0CA68496854
:10381000206801F021FC5021206806E0CA68496850
:10382000206801F02AFC6021206801F0C5FBCEE78A
:10383000CA684968206801F00FFC40212068F4E75D
:10384000226801461046F0E788FFFEFF704770B51A
:103850000446006801694FF00005C943890715D483
:10386000C168C943890711D4E91E0161012020778D
:10387000206880698007204602D0FFF7E7FF04E058
:1038800000F0A7F8204600F0A5F825772068016928
:10389000C943490717D4C168C943490713D46FF016
:1038A00004010161022020772068806910F4407FC4
:1038B000204602D0FFF7CAFF04E000F08AF8204655
:1038C00000F088F8257720680169C943090716D4F4
:1038D000C168C943090712D46FF0080101610420CF
:1038E00020772068C0698007204602D0FFF7AEFF2E
:1038F00004E000F06EF8204600F06CF825772068B0
:103900000169C943C90617D4C168C943C90613D49C
:103910006FF010010161082020772068C06910F461
:10392000407F204602D0FFF791FF04E000F051F8FD
:10393000204600F04FF8257720680169C943C90780
:1039400008D1C168C943C90704D1891E0161204655
:1039500000F041F820680169C943090609D4C1682B
:10396000C943090605D46FF0800101612046FFF7C5
:103970003EFE20680169C943C90509D4C168C9432D
:10398000090605D46FF4807101612046FFF72EFE11
:1039900020680169C943490609D4C168C943490679
:1039A00005D46FF040010161204600F040F8206826
:1039B0000169C94389060BD4C168C943890607D484
:1039C0006FF0200101612046BDE87040FFF710BE96
:1039D00070BD70477047704770B5044690F83C0062
:1039E000012812D0012584F83C50022084F83D00C3
:1039F000204601F0E9FA01004FF0000007D084F8FA
:103A00003D5084F83C00012070BD022070BD21684B
:103A1000CA6822F04002CA602168CA6822F4804263
:103A2000CA6084F83D5084F83C00002070BD7047A7
:103A300010B5040002D0E06F10B107E0012010BD06
:103A4000002084F87800204600F026F82420E06763
:103A50002068016821F001010160204601F0FEFBB1
:103A60000128ECD0606A10B1204601F018FB2068F4
:103A7000416821F4904141602068816821F02A0169
:103A800081602068016841F0010101602046BDE8C5
:103A9000104001F068BB000010B586B00446142148
:103AA0006846FCF73DFD1249206888421ED1114846
:103AB000816941F480418161816901F4804105910E
:103AC000416941F4802141614069694600F48020E8
:103AD0000590C02000900220019000200290032059
:103AE0000390072004900448FEF72AFB06B010BD9F
:103AF0000038014000100240000400480249102034
:103B00000860FDF7A3BC000088740140062911D2AB
:103B1000DFE801F00911171D23030068D0F88413B2
:103B200041F0010104E00068D0F8841341F0020183
:103B3000C0F8841370470068D0F8841341F0040182
:103B4000F6E70068D0F8841341F00801F0E7006858
:103B5000D0F8841341F01001EAE70068D0F884132C
:103B600041F02001E4E7F0B50024E425076805EB07
:103B7000C11657F806C0B82505EBC1157D59202A96
:103B800027D00CDC042A15D004DC012A12D0022A2A
:103B90002BD11EE0082A1CD0102A26D10AE0402A88
:103BA00008D0802A15D0B2F5807F03D0B2F5007F0F
:103BB0001BD10EE04FF0BC0E0EEBC11E5A6847F849
:103BC0000E204FF0C00E07680EEBC1119A687A50B4
:103BD0000BE0C42404EBC1145A683A51C8270468A6
:103BE00007EBC1119A6862501024FE21A1401A68A7
:103BF0002CEA010CA240D96842EA0C02A140114310
:103C00001A69D3F814C01746A2400A430CFA04FC00
:103C100099694CEA020CA14041EA0C01082F06D137
:103C2000AA0504D4AA0102D4DA69A24011430068AB
:103C30008151F0BD2DE9F04F8024036804EBC116DB
:103C40009C5924F070449C5103689A469D59E8247D
:103C500004EBC114A64653F80490E42404EBC11409
:103C6000A3461C59D3F8A03325F0200755693D43DE
:103C700025F4006795693D4325F48067D5693D4388
:103C800025F0C067156A3D4325F00067556A3D433E
:103C900025F07047956A3D43176B25F40035B7F161
:103CA000005F01D145F4003525F04007556BD2F88F
:103CB00048802F4327F4802C176D47EA0C0727F024
:103CC000FC7748EA070892F8387029F01F0C07F0D3
:103CD0001F0747EA0C0727F0004CD76B47EA0C0791
:103CE00025B924F4807C146C44EA0C04D2F844C056
:103CF000BCF5606F02D0BCF5F05F01D1402D03D15F
:103D000024F4F0544CEA0404D56C052921D2DFE8F0
:103D100001F003090F151B00D26A23F4003343EAB4
:103D2000420316E0D26A23F4802343EA820310E0C0
:103D3000D26A23F4002343EAC2030AE0D26A23F4DE
:103D4000801343EA021304E0D26A23F4001343EA27
:103D500042134AF80680066846F80E70066846F870
:103D60000B40D424026804EBC11155500068C0F820
:103D7000A033BDE8F08FFEE72DE9F041DFF8808049
:103D800008214046FEF7ECFA1E4D01271E4C002686
:103D9000D0B12E8310214046FEF7E2FA08B36E83BD
:103DA000207A00282AD12088022801D0032825D192
:103DB0002780E67103211548FEF7ABFDBDE8F04111
:103DC0000C211248FEF7A5BD288B401C80B2288329
:103DD0001E28DFD92E83207A08B12672DAE72772EF
:103DE000D8E7688B401C80B268831E28D8D96E83C0
:103DF000607A08B16672D3E76772D1E7BDE8F081F7
:103E00000004004828000020C4030020B001002066
:103E10001B4810B500881B4C05282FD2DFE800F0A6
:103E200003030A111D00012211462046FEF79DFAE8
:103E3000012218E0012211462046FEF796FA0122DF
:103E400005E0012211462046FEF78FFA00220221EA
:103E50002046FEF78AFA00220AE0002201212046CD
:103E6000FEF783FA002202212046FEF77EFA0122A5
:103E70002046BDE810400421FEF777BA10BD0000CF
:103E8000C40300200004004870B58AB000240694E2
:103E90000794182168460894FCF742FB2A484FF023
:103EA000A041012501604FF440310561C0E90114D2
:103EB000447680F82040A902C1620426C6614FF40E
:103EC000E071C460816280F830500821416104765D
:103ED0004463FDF771FE08B1FDF74EFC06A91A48D0
:103EE0000694FDF74BFC08B1FDF746FC00950195E3
:103EF0000325CDE902540494694613480594FDF75F
:103F0000ADFC08B1FDF738FC022000900190694635
:103F10000D48FDF7A3FC08B1FDF72EFC009569469E
:103F200009480195FDF79AFC08B1FDF725FC0096BC
:103F3000694605480196FDF791FC002801D0FDF780
:103F40001BFC0AB070BD0000CC00002070B586B02C
:103F500018216846FCF7E4FA164815490024016068
:103F60004902C0E9011401250461457680F820402A
:103F7000C0E90A54C561C46080F830400426466137
:103F800004764463FDF718FE08B1FDF7F5FBCDE9B3
:103F90000264009501950494694606480594FDF76E
:103FA0005DFC002801D0FDF7E7FB06B070BD000006
:103FB000000100501C010020054808B5416941F08E
:103FC00001014161406900F00100009008BD00005E
:103FD0000010024070B586B014216846FCF7A0FAC4
:103FE0001B48416941F400314161416901F40031EC
:103FF0000591416941F4802141614069154E00F409
:1040000080200590002247F207013046FEF7ADF907
:1040100007200124CDE900040320CDE902406946D0
:104020003046FEF78DF84FF4E04000258DE8310072
:10403000694630460395FEF783F81820CDE9000560
:10404000694602943046FEF77BF806B070BD00006A
:10405000001002400004004870B5B0B000242D9458
:104060002E94269427942894542168462994FCF78A
:1040700057FA2A942B9424211DA82C94FCF750FA6B
:10408000202115A8FCF74CFA70486F49C0E90014CC
:104090008460FEF74BFA08B1FDF76EFB0C216B480C
:1040A000FEF7CDF908B1FDF767FB0A216748FEF777
:1040B000EFFA08B1FDF760FB4FF480302D9040110E
:1040C0002E902DAA01216148FEF75AF908B1FDF79B
:1040D00053FB082526AA4FF420500126299582E893
:1040E000510000215948FEF7F4FA08B1FDF744FBEE
:1040F0001020CDE900040294CDE90346C005CDE9C6
:10410000084005948000069407940A94CDE90B407A
:1041100086004015CDE90E46CDE910040D941294A9
:1041200013946A46002149481494FEF70AFC08B12A
:10413000FDF722FB6A46012144480094FEF701FC8A
:1041400008B1FDF719FB41F288302A902AAB012211
:1041500000213E48FEF7FAFA08B1FDF70DFB40F6E4
:10416000C4102A902AAB042200213848FEF7EEFA48
:1041700008B1FDF701FBB420CDE91D404FF400412B
:10418000CDE91F41491022AA219182E85100000780
:1041900025901DAA00212D48FEF782F908B1FDF7F0
:1041A000EBFA642022901DAA01212848FEF778F935
:1041B00008B1FDF7E1FA0420CDE91540CDE9175427
:1041C00019941A941B9415AB012200211F481C94CA
:1041D000FEF76CFB08B1FDF7CFFA15AB0422012105
:1041E0001A48FEF763FB08B1FDF7C6FA169415AB43
:1041F0000222002115481794FEF758FB08B1FDF77D
:10420000BBFA15AB082201211048FEF74FFB08B19D
:10421000FDF7B2FA26AA01210C482794FEF759FAB5
:1042200008B1FDF7A9FA42F2283001222A902AAB00
:1042300011460648FEF78AFA08B1FDF79DFA0348D1
:10424000FEF7F0F930B070BD00740140B0010020FD
:104250007CB5012211032848FEF787F8F0210846B3
:1042600000F032FB002000F00BFB642000F0CEFBDE
:1042700022A00124CDE9004000234FF4FC652A462A
:1042800019460A2000F00FFC22A0CDE900400023CF
:104290002A4614210A2000F006FC20A0CDE90040A7
:1042A0003C2100232A46084600F0FDFB1FA0CDE973
:1042B000004000232A4650210A2000F0F4FB1CA0F5
:1042C000CDE9004000232A4664210A2000F0EBFBE0
:1042D00018A0CDE9004000232A4678210A2000F0EA
:1042E000E2FB15A0CDE9004000232A4696210A20D2
:1042F00000F0D9FB7CBD0000000400484275636BF0
:104300002D426F6F737420562D4C6F6F702054794F
:104310007065330053746174653A0000494E202083
:10432000202020202020204F55540000563A000025
:10433000493A0000503A00005661646A3A000000B1
:10434000124810B5104901604FF48271416000219C
:104350004FF4E062C0E902120222026101224261CE
:10436000520282610822C0E9072107224162C0E9A6
:104370000A1201634163FFF783F8002803D0BDE808
:104380001040FDF7F9B910BD003001408C0200204B
:1043900010B58CB000240594069407941421684647
:1043A0000894FCF7BDF81A4809940A9417490B942D
:1043B00001602021C0E9011442F21071C0E9031428
:1043C0008461FFF751F908B1FDF7D6F94FF4805039
:1043D000059005A90E48FFF7C9F908B1FDF7CCF91A
:1043E000009469460A480194FFF7F6FA08B1FDF710
:1043F000C3F9099409A906480B94FFF7FBF80028B4
:1044000001D0FDF7B9F90CB010BD00000004004068
:10441000F00200200D4810B50B4901604FF4164121
:104420004160002181600C22C160C0E904128161F9
:10443000C16101624162FFF7FBFA002803D0BDE8C9
:104440001040FDF799B910BD003801403C03002031
:10445000FEE7FEE72DE9F04F974841F690222DED5B
:10446000028B87B00169944D51430F1341684FF49B
:10447000AF6251430E13416A41F6902251434FEA15
:104480002139806940F6980148434FEA20388A482C
:104490008A4C3030483D0068A17950434FEA203AB9
:1044A000A88B4FF4FC6B814218D0A983012031B155
:1044B000012906D0022906D003290FD105E080A1E9
:1044C00004E082A102E084A100E086A1CDE9000120
:1044D00000235A4614213C2000F0E5FA2088E98B9D
:1044E0000024884219D0E8834FF6E072052814D2E0
:1044F000DFE800F0030507090B007DA006E07EA0C1
:1045000004E07FA002E080A000E081A0CDE90040AF
:1045100000231421962000F0C6FA00EE109AF8EE5F
:10452000400A9FED7D8A80EE880A10EE100A01F0A5
:104530001BF9CDE900010223042278A102A8FBF7B0
:1045400017FF02AD00235A4650212820CDE900452F
:1045500000F0A9FA00EE107AF8EE400A80EE880A20
:1045600010EE100A01F000F9CDE900010223042247
:104570006AA102A8FBF7FCFE00235A4650218220C4
:10458000CDE9004500F08FFA00EE108AF8EE400AFF
:1045900080EE880A10EE100A01F0E6F8CDE900017D
:1045A0000223042260A102A8FBF7E2FE00235A4680
:1045B00064212820CDE9004500F075FA00EE106A6C
:1045C000F8EE400A80EE880A10EE100A01F0CCF8EE
:1045D000CDE900010223042253A102A8FBF7C8FE83
:1045E00000235A4664218220CDE9004500F05BFAA1
:1045F00000EE107AB8EE400AC0EE080A00EE106A2B
:10460000B8EE400A60EE800A80EE880A10EE100ACA
:1046100001F0AAF8CDE900010223042245A102A875
:10462000FBF7A6FE00235A4678218220CDE90045FB
:1046300000F039FA00EE109AB8EE400AC0EE080A0F
:1046400000EE108AB8EE400A60EE800A80EE880A1A
:1046500010EE100A01F088F8CDE9000102230422CF
:1046600034A102A8FBF784FE00235A4678212820B3
:10467000CDE9004500F017FA00EE10AAF8EE400A66
:1046800080EE880A10EE100A01F06EF8CDE9000104
:104690000223042221A102A8FBF76AFE00235A4646
:1046A00096213C20CDE9004500F0FDF907B0BDECB6
:1046B000028BBDE8F08F000070000020C4030020D2
:1046C0004D4F44453A2A4E412A2000004D4F444563
:1046D0003A4255434B2000004D4F44453A424F4F1C
:1046E000535400004D4F44453A4D495820000000B6
:1046F000496E69742020000057616974696E670013
:10470000526973696E67000052756E6E696E67005C
:104710004572726F722020000000C84225302A2E98
:104720002A6620562000000025302A2E2A662041C5
:104730002000000025302A2E2A66205700000000A5
:10474000704710B504463A2000F02EF904F07700C7
:10475000BDE8104000F042B908B1292000E028204F
:1047600000F022B92DE9FF4F83B00746DDE910A024
:104770009B460E46F02F38D2F02E36D200EB400189
:1047800001EBC0001A4900250844A0F5C070E946B5
:10479000016A0091416A0191018DADF8081090F80D
:1047A0002A008DF80A004FF00108002419F80510BE
:1047B00008FA04F0014203D1BAF1000F06D00CE070
:1047C000701901B2381900B2059A04E0701901B2EB
:1047D000381900B25A4600F00DF8641CE4B2072CF8
:1047E000E4D36D1CEDB20B2DDFD307B0BDE8F08F25
:1047F000785B000807B5002812DB0A4A1378984254
:104800000EDA00290CDB5278914209DACBB2C2B23F
:10481000C9B2C0B200F0FCF8012102A800F0B5F85E
:104820000EBD00000400002070B51546134A1C465A
:104830001378984221DA527891421EDA46199E4244
:1048400001DD1B1A1DB20B19934201DD521A14B27D
:104850000A19521ED3B24219521ED2B2C9B2C0B204
:1048600000F0D6F8002614FB05F404E0012104A8AA
:1048700000F08BF8761CB442F8D870BD040000201C
:1048800008B5002100900348437802780846FFF7F6
:10489000CBFF08BD0400002070B50A4D4FF48044E2
:1048A000002221462846FDF760FD1420FDF736FC66
:1048B000012221462846FDF758FDBDE87040C8207A
:1048C000FDF72CBC00040048144A10B5107051705C
:1048D000FFF7E2FF00F0DEF800F0D2F85520FFF716
:1048E00030FF0A20FDF71AFC0122002311460420A4
:1048F00000F01CF80A20FDF711FC012000F010F870
:104900000A20FDF70BFC0020FFF7BAFF0120FFF79C
:1049100023FFBDE810406420FDF700BC0400002028
:1049200008B1212000E0202000F03EB82DE9F04140
:1049300000F00705984616460F46362000F034F87A
:10494000082D14D2DFE805F00406080A0C0E101238
:1049500000240CE040240AE0802408E0C02406E0A3
:10496000202404E0602402E0A02400E0E02407B159
:10497000102406B10424B8F1000F01D044F008045B
:104980002046BDE8F04100F029B870B50D46044658
:1049900006E02088000A00F021F8207800F01EF8D8
:1049A0006D1EADB2F5D270BD10B5044600224FF4B5
:1049B00000510848FDF7D9FC07490868400603D4B0
:1049C000086840F0400008600C7388680006FCD45A
:1049D00010BD0000000400480030014010B504463E
:1049E000012251030748FDF7C0FC0749086840064B
:1049F00003D4086840F0400008600C738868000623
:104A0000FCD410BD00040048003001407047000095
:104A10002DE9F0411446194E98460D460746A0422E
:104A200011D8307884420ED82A20FFF7BDFF380A0B
:104A3000FFF7D4FF3846FFF7D1FF200AFFF7CEFF7C
:104A40002046FFF7CBFF4446A54211D87078844238
:104A50000ED82B20FFF7A8FF280AFFF7BFFF284634
:104A6000FFF7BCFF200AFFF7B9FF2046FFF7B6FFAC
:104A7000BDE8F0412C20FFF797BF000004000020A4
:104A800010B51120FFF790FFBDE810404FF4FA7009
:104A9000FDF744BB10B50120FFF786FFBDE81040CD
:104AA0008220FDF73BBB2DE9FC470446DDE90A65A2
:104AB0001F4628789046894680280DD3E41E0AE0D8
:104AC000CDE900603B464246494620466D1CFFF753
:104AD00049FE28780834A4B210F0FF00F0D1BDE8F8
:104AE000FC87704770B51E4840F274521D4C016837
:104AF0000025914212DDC068B0F5907F0EDCE571B3
:104B000003211948FDF705FF0C211748FDF701FFA8
:104B1000A08840F02000A08004202080A288900679
:104B20001DD50F484838C16B491CC163B1F5C87F1A
:104B300015DDC56341780A290CD90B214170E57157
:104B400003210948FDF7E5FEBDE870400C21064849
:104B5000FDF7DFBE491C417022F02000A08070BD2F
:104B600070000020C4030020B00100200848008825
:104B700005280CD2DFE800F00305070B090000F060
:104B80001FB800F0D9B800F025B800F003B870479E
:104B9000C403002010B5084C00200321E071074831
:104BA000FDF7B7FE0C210548FDF7B3FEA0880028ED
:104BB00001D10120208010BDC4030020B0010020DD
:104BC00010B500F033FC02490120088010BD000040
:104BD000C40300202DE9F05F4C4E4D4FDFF83481C7
:104BE0003178DFF83491DFF834A1DFF834B14D4883
:104BF000002406F1780531B1012921D0022941D1E3
:104C0000C079E8B357E0C47103214748FDF781FE3E
:104C10000C214548FDF77DFE5020A881E8813C60CD
:104C2000C8F80040C9F800404048CAF80040CBF836
:104C3000004004603E4804603E48046001201EE0DD
:104C4000B088401C80B2B08014281BD9B48050209A
:104C50002882A8816882E8813C60C8F80040C9F8D1
:104C600000403248CAF80040CBF8004004603048A9
:104C7000046030480460286840102860022000E08A
:104C800002E03070BDE8F09F3C60C8F80040C9F811
:104C900000402648CAF80040CBF800400460244891
:104CA00003210460234804601F48FDF71AFE0C210D
:104CB0001D48FDF716FE1B4A0120D071F188491CE2
:104CC000F180308901EB8101401C3081AB8900EB20
:104CD000800019440BB2AB81E989084407B240F661
:104CE000E161EF818B4200DDA98140F666208742B9
:104CF00000DDE881B5F90C308B42C3D1B5F90E1057
:104D00008142BFD1032010803470BBE7280000200F
:104D1000080000200C0000201000002014000020DB
:104D200018000020C4030020B00100201C00002057
:104D3000200000202400002070B5184E184C0025DB
:104D4000F57160884FF48073401C80B26080984297
:104D500011D9638003211348FDF7C3FDB0880028F3
:104D600008D1307A012805D165802563022065636A
:104D70003080257070BD0A49256B403198424A88C1
:104D80002A442263C988656B29446163F2D10448CF
:104D9000120A4830090AC261816070BDC403002054
:104DA00028000020B001002070B52348224D40F2B9
:104DB0005D410068214C0026483D884202DD208884
:104DC00003281ED06E81A088C10634D5A989491C4C
:104DD00089B2A981B1F5C87F2DD9AE81E989491C75
:104DE00089B2E9810A2923D90B20E881E6710321E0
:104DF0001348FDF78EFDBDE870400C211048FDF70B
:104E000088BD6889401C80B268810A28DBD96E8120
:104E1000E67103210A48FDF77CFD0C210848FDF7E7
:104E200078FDA08840F01000A08004202080CAE710
:104E300020F01000A08070BD70000020C40300208E
:104E4000B0010020FDF7DABD30B597B028216846E3
:104E5000FBF766FB14210AA8FBF762FB1C210FA8D5
:104E6000FBF75EFB022501200490009510200590C1
:104E700000244FF46010CDE9084007956846FEF71E
:104E80001BF808B172B6FEE70F20CDE90A054FF412
:104E90008060CDE90C4002210AA80E94FDF702FFC4
:104EA00008B172B6FEE744F201000F908010159031
:104EB00011940FA8FDF732FE002801D072B6FEE76C
:104EC00017B030BD0248016841F4700101607047BD
:104ED00088ED00E010B50F48FEF7B9FC0E480188D8
:104EE000491C0180FCF72AFBFFF7FCFDFFF75CFF84
:104EF00000F044FB00F0FEFA00F0D2FAFEF73CFFAF
:104F0000FFF734FE00F064FBFCF708FCBDE810403E
:104F1000FEF77EBFF0020020B8000020F0B5026866
:104F20001B4B1C4F4FF0804C984203D0604501D082
:104F3000B84203D122F070044A682243164C174D40
:104F4000174E984209D0604507D0B84205D0A0421C
:104F500003D0A84201D0B04203D122F44077CA68FE
:104F60003A434F6922F080023A4302608A68C26283
:104F70000A688262984205D0A04203D0A84201D0BC
:104F8000B04201D10969016301214161F0BD000016
:104F9000002C01400004004000400140004401405A
:104FA0000048014010B5846842EA032224F47F449B
:104FB0000A432243826010BD826822F070020A43D5
:104FC00042F007018160704770B505680024AA6847
:104FD00022F070034A681A431E4B1A400B681343B1
:104FE000AB604A6812F00F0F31D11211082A2ED28D
:104FF000DFE802F02E2E2E2E0B2127040B69D1E9BB
:1050000002210068FFF7CEFF22E00A68052A10D0CF
:105010000268136A156A25F0010515620268956930
:10502000096925F0F00545EA011191610068036204
:105030000EE0012070BD0A698968006800F00CF874
:1050400006E00A698968006800F017F800E00124AA
:10505000204670BDF8FFFEFF10B5036A046A24F015
:1050600001040462846924F0F00444EA021423F089
:105070000A020A438461026210BD10B5036A23F07C
:10508000100303628369046A23F4704343EA023223
:1050900024F0A00343EA01118261016210BD90F87F
:1050A0002410C90706D001684A68836A22F40032D6
:1050B0001A434A6090F82410890706D501684A68A7
:1050C000C36A22F480321A434A6090F824104907D8
:1050D00006D501684A68036B22F480221A434A60AD
:1050E00090F82410090706D501684A68436B22F43A
:1050F00000421A434A6090F82410C90606D5016898
:105100008A68836B22F480521A438A6090F82410D4
:10511000890606D501688A68C36B22F400521A43D7
:105120008A6090F82410490611D501684A68036C1A
:1051300022F480121A434A60016CB1F5801F06D137
:1051400001684A68436C22F4C0021A434A6090F82E
:105150002410090606D501684A68806C22F40022F2
:1051600002434A6070472DE9F84300260446C0F820
:105170008460FDF7FFF88046206800684FF0200546
:1051800000076FF07E4712D54346002229042046CF
:10519000009700F003F950B1216851E8000F20F0AA
:1051A000800041E80002002AF6D1E56721E020688E
:1051B0000068400722D5434600224FF48001204674
:1051C000009700F0EBF8C8B1216851E8000F20F417
:1051D000907041E80002002AF6D12068083050E8BB
:1051E000001F21F0010140E80012002AF5D1C4F8A7
:1051F000805084F878600320BDE8F883E567C4F840
:10520000805044F8606F666026760020F4E70168FD
:1052100051E8002F22F4907241E80023002BF6D1D0
:105220000168083151E8002F22F0010241E8002313
:10523000002BF5D1016E012908D1026852E8001F48
:1052400021F0100142E80013002BF6D12021C0F814
:1052500080100021016681667047000070B5044629
:1052600080682169E2690843616900251143226869
:1052700008431168434B194001431160206841689D
:10528000E26821F4405111434160A169206A08435A
:1052900021688A6822F4306202438A603A492068B1
:1052A000884210D13948006B10F0030011D001285A
:1052B00005D0022805D003280DD102210CE00421DD
:1052C0000AE0082108E03249884202D03149884288
:1052D00001D1002100E01021E3694FF400402E4A83
:1052E0004FF6EF76834226D1092941D2DFE801F05B
:1052F00005080B400D4040401000FDF777FD06E02B
:10530000FDF78CFD03E0104602E0FDF79FFD80B342
:105310004100606801EB5001B1FBF0F0A0F1100119
:10532000B14225D84FF6F0710140C0F3420001436D
:105330002068C16021E009291AD2DFE801F00508E0
:105340000B190D1919191000FDF750FD06E0FDF7B6
:1053500065FD03E0104602E0FDF778FD48B16168A5
:1053600000EB5100B0FBF1F0A0F11001B14201D906
:10537000012502E0216880B2C8600020A066E066D6
:10538000284670BDF369FFEF00380140001002406D
:10539000004400400048004000127A002DE9F04728
:1053A000994617460E4604464FF00008089D2FE028
:1053B000681C2DD0FCF7DEFFA0EB0900A84214D832
:1053C0009DB120680168490722D5C169C943090711
:1053D0000DD4082505622046FFF719FFC4F8845054
:1053E00084F878800120BDE8F0870320FBE7C069DE
:1053F000C04300050CD421684FF4006008622046C9
:10540000FFF705FF2020C4F8840084F87880ECE7DB
:105410002068C06936EA000004D00020B842C7D036
:105420000020E0E70120F9E7FEE7000070B5114D2C
:1054300000240321EC711048FDF76BFA0C210E4893
:10544000FDF767FA0D49AC805020088288814882B8
:10545000C8810B4804600B4804600B4804600B488B
:1054600004600B4804600B4804600B4804600B4860
:10547000046070BDC4030020B0010020A000002023
:10548000080000200C000020100000201400002064
:10549000180000201C000020200000202400002014
:1054A000114810B51049026A40F6C433002048394B
:1054B0009A4217DDCA8A521C92B2CA82022A10D9B5
:1054C0000A4CC8820321E0710948FDF722FA0C2139
:1054D0000748FDF71EFAA08840F00200A0800420D3
:1054E000208010BDC88210BD70000020C4030020C1
:1054F000B00100202DE9F0411D4F40F2AE21002601
:10550000386A1C4DA7F14804884219DA2888B8B1D6
:10551000608A401C80B26082022812D96682A6820C
:10552000EE7103211448FDF7F4F90C211248FDF740
:10553000F0F9A88840F00100A8800420288000E04D
:105540006682A888C10710D0396AB1F5477F0CDBA5
:10555000A18A491C89B2A182C82904D9A68266827F
:1055600020F00100A880BDE8F081A682FBE70000E2
:1055700070000020C4030020B0010020114810B5C5
:105580001049C26840F6C433002048399A4217DDFA
:105590000A8A521C92B20A82022A10D90A4C088244
:1055A0000321E0710948FDF7B4F90C210748FDF724
:1055B000B0F9A08840F00800A0800420208010BD31
:1055C000088210BD70000020C4030020B00100203C
:1055D00010B51548FCF7EDFA144BA3F14802986298
:1055E000916B4418A4EB212191630912D96202F155
:1055F000780100F20F100A6802F10A04844201DA0D
:105600000C6005E00A3A824201DD0A6000E00860B1
:10561000586A0A6840F69A535843B2EB203F01DDBE
:105620000013086010BD00001C0100207000002065
:1056300003B401984100009850EAC12018BF04202B
:105640004A0D18BF40F0010040F2FF72B2EB515F0B
:1056500008BF40F00200012808BF052002B07047D3
:105660000907090E002804DB00F1E02080F800148F
:10567000704700F00F0000F1E02080F8141D704723
:1056800030380A2801D201207047002070470000FE
:10569000FDF7BCF9FFF7D8FBFEF79CFCFEF78CFC8E
:1056A000FEF7DAFCFEF7F0FBFEF750FCFEF770FEAB
:1056B000FEF746FEFEF7AEFEFEF7CAFD1648FEF701
:1056C00023F8042215491648FCF744FC1548FCF75A
:1056D000D5FB03211448FDF704F90C211248FDF70E
:1056E00000F94FF400311048FDF7CAF84FF480215B
:1056F0000D48FDF7C5F80C48006850F88C1F41F0C4
:1057000010010160094C002520883C28FCD9258027
:10571000FEF7A0FEF8E70000F0020020680000207D
:10572000CC0000201C010020B0010020B8000020A7
:1057300010B500290AD00878002807D00548784419
:10574000FBF774FA002801D0002010BD024878440D
:1057500010BD00007A0D0000720D00000808A0F5D1
:1057600000114FEA3101704743004FEAD30C4FEA72
:105770003C0C43401FBF40070CF1605113F0FE4F3B
:1057800070471CF0006F03D100200CF000417047FF
:105790000CF0004343EA507010B540EACC0000F032
:1057A0000EF800BF000000924FEA0001FFF7D6BFDD
:1057B0004FF000414FF00000A1F5002170470EF1BD
:1057C000020E2EF0030E5EF8044B244204D44FEA7E
:1057D0004102B2F17F4F11D84FEA4003B3F17F4F3E
:1057E0000CD80ED14FEAD07CB2F17F4F0CEB4C0CB1
:1057F0000CF1020C08BF4CEBD17C04E04FF0080C1C
:1058000001E04FEAD17C0CEB4C0324FA03F404F0E2
:105810000704B4F1040C06D20EEB840CBDE8104072
:105820004CF0010C6047DFE80CF0070802024FF073
:105830000040A0F5800010BD0846420018BFD2F11C
:10584000807288BF00F0004010BD4FF04070E1EE64
:10585000100A7047FAF767BF000000000000005F01
:1058600000000007000700147F147F14242A7F2AF9
:1058700012231308646236495522500005030000C4
:10588000001C2241000041221C0014083E0814089C
:10589000083E0808005030000008080808080060AA
:1058A00060000020100804023E5149453E00427F3E
:1058B000400042615149462141454B311814127F45
:1058C0001027454545393C4A4949300171090503CE
:1058D0003649494936064949291E00363600000036
:1058E0005636000008142241001414141414004108
:1058F0002214080201510906324979413E7E1111F4
:10590000117E7F494949363E414141227F41412232
:105910001C7F494949417F090909013E4149497AAA
:105920007F0808087F00417F41002040413F017F00
:10593000081422417F404040407F020C027F7F04D8
:1059400008107F3E4141413E7F090909063E415111
:10595000215E7F09192946464949493101017F01E4
:10596000013F4040403F1F2040201F3F4038403F04
:105970006314081463070870080761514945430020
:105980007F41410002040810200041417F000402D1
:1059900001020440404040400001020400205454F1
:1059A00054787F4844443838444444203844444878
:1059B0007F3854545418087E0901020C5252523E4A
:1059C0007F0804047800447D40002040443D007F6F
:1059D0001028440000417F40007C041804787C08B3
:1059E00004047838444444387C141414080814140B
:1059F000187C7C080404084854545420043F444054
:105A0000203C4040207C1C2040201C3C4030403C3E
:105A100044281028440C5050503C4464544C4400DA
:105A20000836410000007F000000413608001008E1
:105A300008100800000000007E1111117E7F494906
:105A400049337F494949367F01010103E0514F4104
:105A5000FF7F4949494177087F08774149494936DD
:105A60007F1008047F7C2112097C7F0814224120CA
:105A7000413F017F7F020C027F7F0808087F3E4183
:105A800041413E7F0101017F7F090909063E4141F5
:105A9000412201017F010147281008071C227F22B3
:105AA0001C63140814637F404040FF070808087F08
:105AB0007F407F407F7F407F40FF017F4848307FAD
:105AC0004830007F007F484830224149493E7F08E6
:105AD0003E413E462919097F20545454783C4A4A95
